{
  "fileName": "Token_Exchange.sol",
  "contractName": "Token_exchange",
  "source": "pragma solidity ^0.6.0;\n\nimport \"./IERC20.sol\";\nimport \"./Address.sol\";\nimport \"./SafeMath.sol\";\nimport \"./Initializable.sol\";\n\n\ncontract Token_exchange is Initializable{\n\n     uint256 sellid_counter;\n     uint256 buyid_counter;\n     uint256 negotiate_counter;\n\n    enum PricePaymentOption{\n        ETHER,\n        TOKEN\n    }\n\n\n    enum Orderstatus{\n        FORSALE,\n        CLOSED\n    }\n\n    enum CounterOrderstatus{\n        REJECTED,\n        ACCEPTED,\n        PENDING,\n        CANCELED,\n        CLOSED\n    }\n\n    struct SellOrder{\n        address tokenToSell;\n        uint256 amount;\n        PricePaymentOption paymentOption;\n        uint256 price;\n        address tokenToExchange;\n        address payable seller;\n        uint256 quantity;\n        Orderstatus status;\n    }\n\n    struct BuyOrder{\n        uint256 sellOrderID;\n        address buyer;\n        \n    }\n\n    struct CounterOrder{\n        uint256 sellOrderID;\n        uint256 price;\n        address payable buyer;\n        string comment;\n        CounterOrderstatus status;\n    } \n\n\n\n    mapping(uint256=>SellOrder) public SellOrders;\n    mapping(uint256=>CounterOrder) public CounterOrders;\n    mapping(uint256=>BuyOrder) public AcceptOrders;\n\n    event SellOrderAltered(uint256 _id,address _tokenToSell , uint256 _amount,uint256 quantity , PricePaymentOption _paymentOption, uint256 _price , address _tokenToExchange , address _seller , Orderstatus _status);\n\n    event AcceptOrderAltered(uint256 _id ,uint256 sell_id, address _buyer);\n\n    event CounterOrderAltered(uint256 id , uint256 sell_id, uint256 _price  , string _comment , CounterOrderstatus _status , address buyer);\n\n\n   constructor() public{\n         sellid_counter=0;\n         buyid_counter=0;\n         negotiate_counter=0;\n    }\n\n\n    function registerOrder(address _tokenToSell , uint256 _amount ,uint256 _quantity ,PricePaymentOption _paymentOption, uint256 _price , address _tokenToExchange) external returns(uint256 id){\n        require(!Address.isContract(msg.sender),\"Seller cannot be a contract\");\n        SellOrder memory Order;\n        Order.tokenToSell=_tokenToSell;\n        Order.amount=_amount;\n        Order.paymentOption=_paymentOption;\n    \n    if(_paymentOption==PricePaymentOption.TOKEN){\n        Order.tokenToExchange=_tokenToExchange; \n    }\n    else{\n        Order.tokenToExchange=address(0x0);\n    }\n\n        Order.price=_price;\n        Order.seller=msg.sender;\n        Order.status=Orderstatus.FORSALE;\n        Order.quantity=_quantity;\n        SellOrders[sellid_counter]=Order;\n        IERC20 tokenAddress = IERC20(_tokenToSell);\n        \n        tokenAddress.transferFrom(msg.sender,address(this),(SafeMath.mul(_amount,_quantity)));\n\n        emit SellOrderAltered(sellid_counter,_tokenToSell , _amount,_quantity , _paymentOption, _price , _tokenToExchange , msg.sender , Order.status);\n        sellid_counter=SafeMath.add(sellid_counter,1);\n\n        return (SafeMath.sub(sellid_counter,1));\n    }\n\n\n    function getQuantity(uint256 _sellid) public view returns(uint256){\n        return 3;\n    }\n   \n    function recieveAssets(uint256 _sellid) public {\n        address seller=SellOrders[_sellid].seller;\n        IERC20 tokenToSell=IERC20(SellOrders[_sellid].tokenToSell);\n        uint256 amount=SellOrders[_sellid].amount;\n        tokenToSell.transfer(msg.sender,amount);\n\n    }\n\n    function buySellOrder(uint256 _sellid ) payable external returns (uint256){\n        require(SellOrders[_sellid].status==Orderstatus.FORSALE,\"This Sell Order is no longer for sale\");\n        require(msg.sender!=SellOrders[_sellid].seller,\"Seller cannot Accept his own offer\");\n        require(!Address.isContract(msg.sender),\"Offer cannot be accepted by a contract\");\n        \n        uint256 amount;\n        if(SellOrders[_sellid].paymentOption==PricePaymentOption.TOKEN){\n            \n            IERC20 tokenAddress=IERC20(SellOrders[_sellid].tokenToExchange);\n            amount= SellOrders[_sellid].price;\n            require(tokenAddress.balanceOf(msg.sender)>=amount,\"You dont have the funds to buy this token\");\n            \n            tokenAddress.transferFrom(msg.sender,SellOrders[_sellid].seller,amount);\n            }\n        else{\n            amount= SellOrders[_sellid].price;\n            require(msg.value==amount,\"You dont have the funds to buy this token\");\n            SellOrders[_sellid].seller.call{value: msg.value}(\"\");\n            }\n        \n\n        SellOrders[_sellid].quantity=SafeMath.sub(SellOrders[_sellid].quantity,1);\n        if(SellOrders[_sellid].quantity<=0){\n            SellOrders[_sellid].status=Orderstatus.CLOSED;\n        }\n        BuyOrder memory Order;\n        Order.sellOrderID=_sellid;\n        Order.buyer=msg.sender;\n        \n\n        AcceptOrders[buyid_counter]=Order;\n        emit AcceptOrderAltered(buyid_counter,_sellid , msg.sender);\n        buyid_counter=SafeMath.add(buyid_counter,1);\n\n        recieveAssets(_sellid);\n\n\n        \n        emit SellOrderAltered(_sellid,SellOrders[_sellid].tokenToSell , SellOrders[_sellid].amount,SellOrders[_sellid].quantity, SellOrders[_sellid].paymentOption, SellOrders[_sellid].price , SellOrders[_sellid].tokenToExchange ,SellOrders[_sellid].seller , SellOrders[_sellid].status);\n        \n        return (SafeMath.sub(buyid_counter,1));\n\n\n    }\n\n    \n\n\n\n\n\n\n    function negotiate(uint256 _sellid , uint256 _price , string calldata _comment ) external returns(uint256) {\n        require(msg.sender.balance>=_price,\"You do not have the funds to make such an offer\");\n        CounterOrder memory Order;\n        Order.sellOrderID=_sellid;\n        Order.buyer=msg.sender;\n        Order.price=_price;\n        Order.comment=_comment;\n        Order.status=CounterOrderstatus.PENDING;\n\n        CounterOrders[negotiate_counter]=Order;\n        emit CounterOrderAltered(negotiate_counter,_sellid, _price  , _comment , Order.status,msg.sender );\n        negotiate_counter++;\n        return (negotiate_counter-1);\n    }\n\n    function acceptCounterOrder(uint256 _id) external {\n        uint256 sell_id = CounterOrders[_id].sellOrderID;\n        require(SellOrders[sell_id].seller==msg.sender,\"Only Seller can Accept a Counter Order\");\n        address buyer=CounterOrders[_id].buyer;\n        address seller= SellOrders[sell_id].seller;\n  \n        CounterOrders[_id].status=CounterOrderstatus.ACCEPTED;\n\n    emit CounterOrderAltered(_id,sell_id, CounterOrders[_id].price  , CounterOrders[_id].comment , CounterOrders[_id].status,CounterOrders[_id].buyer  );\n        }\n\n    function buyCounterOrder(uint256 _id) external payable{\n        uint256 _sellid = CounterOrders[_id].sellOrderID;\n        require(CounterOrders[_id].status==CounterOrderstatus.ACCEPTED,\"Counter Order must be accepted\");\n        \n        require(msg.sender==CounterOrders[_id].buyer);\n        \n        uint256 amount;\n\n        recieveAssets(_sellid);\n\n        SellOrders[_sellid].quantity=SafeMath.sub(SellOrders[_sellid].quantity,1);\n        if(SellOrders[_sellid].quantity<=0){\n            SellOrders[_sellid].status=Orderstatus.CLOSED;\n        }\n\n        \n        if(SellOrders[_sellid].paymentOption==PricePaymentOption.TOKEN){\n            \n            IERC20 tokenAddress=IERC20(SellOrders[_sellid].tokenToExchange);\n            amount= CounterOrders[_sellid].price;\n            require(tokenAddress.balanceOf(msg.sender)>=amount,\"You dont have the funds to buy this token\");\n            require(tokenAddress.allowance(msg.sender,address(this))>=amount,\"Buyer needs to approve required tokens to contract first\");\n            tokenAddress.transferFrom(msg.sender,SellOrders[_sellid].seller,amount);\n            }\n        else{\n            amount= CounterOrders[_sellid].price;\n            require(msg.value>=amount,\"You dont have the funds to buy this token\");\n            SellOrders[_sellid].seller.call{value: msg.value}(\"\");\n            }\n    \n\n        // SellOrders[sell_id].quantity-=1;\n        // if(SellOrders[sell_id].quantity<=0){\n        //     SellOrders[sell_id].status=Orderstatus.CLOSED;\n        // }\n\n        emit CounterOrderAltered(_id,_sellid, CounterOrders[_id].price  , CounterOrders[_id].comment , CounterOrders[_id].status,CounterOrders[_id].buyer );\n        emit SellOrderAltered(_sellid,SellOrders[_sellid].tokenToSell , SellOrders[_sellid].amount ,SellOrders[_sellid].quantity, SellOrders[_sellid].paymentOption, SellOrders[_sellid].price , SellOrders[_sellid].tokenToExchange ,SellOrders[_sellid].seller , SellOrders[_sellid].status);\n    }\n\n\n    function cancelCounterOrder(uint256 _id) external {\n        uint256 sell_id = CounterOrders[_id].sellOrderID;\n        address buyer=CounterOrders[_id].buyer;\n        address seller= SellOrders[sell_id].seller;\n        require(msg.sender==seller || msg.sender==buyer,\"Only Seller or Owner of the Counter Order can cancel couterOrder\");\n\n\n\n        if(msg.sender==seller){\n            CounterOrders[sell_id].status=CounterOrderstatus.REJECTED;\n        }\n        else if(msg.sender==buyer){\n            CounterOrders[sell_id].status=CounterOrderstatus.CANCELED;\n        }\n\n         emit CounterOrderAltered(_id,sell_id, CounterOrders[_id].price  , CounterOrders[_id].comment , CounterOrders[_id].status,CounterOrders[_id].buyer );\n    }\n\n    function increamentQuantity(uint256 sell_id , uint256 quantity) external{\n        require(SellOrders[sell_id].seller==msg.sender,\"Only Seller of these Orders can deposit Orders\");\n        SellOrders[sell_id].quantity=SafeMath.add(SellOrders[sell_id].quantity, quantity);\n        IERC20 tokenToSell = IERC20(SellOrders[sell_id].tokenToSell);\n        uint256 amount=SellOrders[sell_id].amount;\n        require(tokenToSell.balanceOf(msg.sender)>=SafeMath.mul(amount,quantity),\"Seller must have the funds being put for sale\");\n        if(SellOrders[sell_id].status==Orderstatus.CLOSED){\n            SellOrders[sell_id].status=Orderstatus.FORSALE;\n        }\n\n\n        tokenToSell.transferFrom(msg.sender,address(this),amount*quantity);\n        emit SellOrderAltered(sell_id,SellOrders[sell_id].tokenToSell , SellOrders[sell_id].amount,SellOrders[sell_id].quantity, SellOrders[sell_id].paymentOption, SellOrders[sell_id].price , SellOrders[sell_id].tokenToExchange ,SellOrders[sell_id].seller , SellOrders[sell_id].status);\n\n    }\n\n    function decreamentQuantity(uint256 sell_id , uint256 quantity) external{\n        require(SellOrders[sell_id].seller==msg.sender,\"Only Seller of these Orders can withdraw Orders\");\n        require(SellOrders[sell_id].quantity>=quantity,\"Seller must have enough Orders deposited to withdraw the specific amount\");\n\n        IERC20 tokenToSell=IERC20(SellOrders[sell_id].tokenToSell);\n        uint256 amount= SellOrders[sell_id].amount;\n\n        tokenToSell.transfer(msg.sender,SafeMath.mul(amount,quantity));\n        SellOrders[sell_id].quantity-=quantity;\n\n        if(SellOrders[sell_id].quantity<=0){\n            SellOrders[sell_id].status=Orderstatus.CLOSED;\n        }\n        emit SellOrderAltered(sell_id,SellOrders[sell_id].tokenToSell , SellOrders[sell_id].amount ,SellOrders[sell_id].quantity, SellOrders[sell_id].paymentOption, SellOrders[sell_id].price , SellOrders[sell_id].tokenToExchange ,SellOrders[sell_id].seller , SellOrders[sell_id].status);\n    }\n\n\n    \n\n    \n\n\n    \n\n}",
  "sourcePath": "contracts/Token_Exchange.sol",
  "abi": [
    {
      "inputs": [],
      "stateMutability": "nonpayable",
      "type": "constructor"
    },
    {
      "anonymous": false,
      "inputs": [
        {
          "indexed": false,
          "internalType": "uint256",
          "name": "_id",
          "type": "uint256"
        },
        {
          "indexed": false,
          "internalType": "uint256",
          "name": "sell_id",
          "type": "uint256"
        },
        {
          "indexed": false,
          "internalType": "address",
          "name": "_buyer",
          "type": "address"
        }
      ],
      "name": "AcceptOrderAltered",
      "type": "event"
    },
    {
      "anonymous": false,
      "inputs": [
        {
          "indexed": false,
          "internalType": "uint256",
          "name": "id",
          "type": "uint256"
        },
        {
          "indexed": false,
          "internalType": "uint256",
          "name": "sell_id",
          "type": "uint256"
        },
        {
          "indexed": false,
          "internalType": "uint256",
          "name": "_price",
          "type": "uint256"
        },
        {
          "indexed": false,
          "internalType": "string",
          "name": "_comment",
          "type": "string"
        },
        {
          "indexed": false,
          "internalType": "enum Token_exchange.CounterOrderstatus",
          "name": "_status",
          "type": "uint8"
        },
        {
          "indexed": false,
          "internalType": "address",
          "name": "buyer",
          "type": "address"
        }
      ],
      "name": "CounterOrderAltered",
      "type": "event"
    },
    {
      "anonymous": false,
      "inputs": [
        {
          "indexed": false,
          "internalType": "uint256",
          "name": "_id",
          "type": "uint256"
        },
        {
          "indexed": false,
          "internalType": "address",
          "name": "_tokenToSell",
          "type": "address"
        },
        {
          "indexed": false,
          "internalType": "uint256",
          "name": "_amount",
          "type": "uint256"
        },
        {
          "indexed": false,
          "internalType": "uint256",
          "name": "quantity",
          "type": "uint256"
        },
        {
          "indexed": false,
          "internalType": "enum Token_exchange.PricePaymentOption",
          "name": "_paymentOption",
          "type": "uint8"
        },
        {
          "indexed": false,
          "internalType": "uint256",
          "name": "_price",
          "type": "uint256"
        },
        {
          "indexed": false,
          "internalType": "address",
          "name": "_tokenToExchange",
          "type": "address"
        },
        {
          "indexed": false,
          "internalType": "address",
          "name": "_seller",
          "type": "address"
        },
        {
          "indexed": false,
          "internalType": "enum Token_exchange.Orderstatus",
          "name": "_status",
          "type": "uint8"
        }
      ],
      "name": "SellOrderAltered",
      "type": "event"
    },
    {
      "inputs": [
        {
          "internalType": "uint256",
          "name": "",
          "type": "uint256"
        }
      ],
      "name": "AcceptOrders",
      "outputs": [
        {
          "internalType": "uint256",
          "name": "sellOrderID",
          "type": "uint256"
        },
        {
          "internalType": "address",
          "name": "buyer",
          "type": "address"
        }
      ],
      "stateMutability": "view",
      "type": "function"
    },
    {
      "inputs": [
        {
          "internalType": "uint256",
          "name": "",
          "type": "uint256"
        }
      ],
      "name": "CounterOrders",
      "outputs": [
        {
          "internalType": "uint256",
          "name": "sellOrderID",
          "type": "uint256"
        },
        {
          "internalType": "uint256",
          "name": "price",
          "type": "uint256"
        },
        {
          "internalType": "address payable",
          "name": "buyer",
          "type": "address"
        },
        {
          "internalType": "string",
          "name": "comment",
          "type": "string"
        },
        {
          "internalType": "enum Token_exchange.CounterOrderstatus",
          "name": "status",
          "type": "uint8"
        }
      ],
      "stateMutability": "view",
      "type": "function"
    },
    {
      "inputs": [
        {
          "internalType": "uint256",
          "name": "",
          "type": "uint256"
        }
      ],
      "name": "SellOrders",
      "outputs": [
        {
          "internalType": "address",
          "name": "tokenToSell",
          "type": "address"
        },
        {
          "internalType": "uint256",
          "name": "amount",
          "type": "uint256"
        },
        {
          "internalType": "enum Token_exchange.PricePaymentOption",
          "name": "paymentOption",
          "type": "uint8"
        },
        {
          "internalType": "uint256",
          "name": "price",
          "type": "uint256"
        },
        {
          "internalType": "address",
          "name": "tokenToExchange",
          "type": "address"
        },
        {
          "internalType": "address payable",
          "name": "seller",
          "type": "address"
        },
        {
          "internalType": "uint256",
          "name": "quantity",
          "type": "uint256"
        },
        {
          "internalType": "enum Token_exchange.Orderstatus",
          "name": "status",
          "type": "uint8"
        }
      ],
      "stateMutability": "view",
      "type": "function"
    },
    {
      "inputs": [
        {
          "internalType": "uint256",
          "name": "_id",
          "type": "uint256"
        }
      ],
      "name": "acceptCounterOrder",
      "outputs": [],
      "stateMutability": "nonpayable",
      "type": "function"
    },
    {
      "inputs": [
        {
          "internalType": "uint256",
          "name": "_id",
          "type": "uint256"
        }
      ],
      "name": "buyCounterOrder",
      "outputs": [],
      "stateMutability": "payable",
      "type": "function"
    },
    {
      "inputs": [
        {
          "internalType": "uint256",
          "name": "_sellid",
          "type": "uint256"
        }
      ],
      "name": "buySellOrder",
      "outputs": [
        {
          "internalType": "uint256",
          "name": "",
          "type": "uint256"
        }
      ],
      "stateMutability": "payable",
      "type": "function"
    },
    {
      "inputs": [
        {
          "internalType": "uint256",
          "name": "_id",
          "type": "uint256"
        }
      ],
      "name": "cancelCounterOrder",
      "outputs": [],
      "stateMutability": "nonpayable",
      "type": "function"
    },
    {
      "inputs": [
        {
          "internalType": "uint256",
          "name": "sell_id",
          "type": "uint256"
        },
        {
          "internalType": "uint256",
          "name": "quantity",
          "type": "uint256"
        }
      ],
      "name": "decreamentQuantity",
      "outputs": [],
      "stateMutability": "nonpayable",
      "type": "function"
    },
    {
      "inputs": [
        {
          "internalType": "uint256",
          "name": "_sellid",
          "type": "uint256"
        }
      ],
      "name": "getQuantity",
      "outputs": [
        {
          "internalType": "uint256",
          "name": "",
          "type": "uint256"
        }
      ],
      "stateMutability": "view",
      "type": "function"
    },
    {
      "inputs": [
        {
          "internalType": "uint256",
          "name": "sell_id",
          "type": "uint256"
        },
        {
          "internalType": "uint256",
          "name": "quantity",
          "type": "uint256"
        }
      ],
      "name": "increamentQuantity",
      "outputs": [],
      "stateMutability": "nonpayable",
      "type": "function"
    },
    {
      "inputs": [
        {
          "internalType": "uint256",
          "name": "_sellid",
          "type": "uint256"
        },
        {
          "internalType": "uint256",
          "name": "_price",
          "type": "uint256"
        },
        {
          "internalType": "string",
          "name": "_comment",
          "type": "string"
        }
      ],
      "name": "negotiate",
      "outputs": [
        {
          "internalType": "uint256",
          "name": "",
          "type": "uint256"
        }
      ],
      "stateMutability": "nonpayable",
      "type": "function"
    },
    {
      "inputs": [
        {
          "internalType": "uint256",
          "name": "_sellid",
          "type": "uint256"
        }
      ],
      "name": "recieveAssets",
      "outputs": [],
      "stateMutability": "nonpayable",
      "type": "function"
    },
    {
      "inputs": [
        {
          "internalType": "address",
          "name": "_tokenToSell",
          "type": "address"
        },
        {
          "internalType": "uint256",
          "name": "_amount",
          "type": "uint256"
        },
        {
          "internalType": "uint256",
          "name": "_quantity",
          "type": "uint256"
        },
        {
          "internalType": "enum Token_exchange.PricePaymentOption",
          "name": "_paymentOption",
          "type": "uint8"
        },
        {
          "internalType": "uint256",
          "name": "_price",
          "type": "uint256"
        },
        {
          "internalType": "address",
          "name": "_tokenToExchange",
          "type": "address"
        }
      ],
      "name": "registerOrder",
      "outputs": [
        {
          "internalType": "uint256",
          "name": "id",
          "type": "uint256"
        }
      ],
      "stateMutability": "nonpayable",
      "type": "function"
    }
  ],
  "bytecode": "0x608060405234801561001057600080fd5b50600060338190555060006034819055506000603581905550613c42806100386000396000f3fe6080604052600436106100c25760003560e01c8063723ae9411161007f578063a5d63c1711610059578063a5d63c17146104c1578063bc4d2c18146104fc578063cb5eeae714610537578063d03709871461060f576100c2565b8063723ae941146103aa5780639f0bb8b0146103d8578063a2d402d714610486576100c2565b80630911f623146100c757806323d453ec146101b857806323fc34be1461026857806326124f4f146102ad578063386e94c9146103195780635ebd9ded1461035b575b600080fd5b3480156100d357600080fd5b50610100600480360360208110156100ea57600080fd5b8101908080359060200190929190505050610654565b604051808681526020018581526020018473ffffffffffffffffffffffffffffffffffffffff1681526020018060200183600481111561013c57fe5b8152602001828103825284818151815260200191508051906020019080838360005b8381101561017957808201518184015260208101905061015e565b50505050905090810190601f1680156101a65780820380516001836020036101000a031916815260200191505b50965050505050505060405180910390f35b3480156101c457600080fd5b50610252600480360360c08110156101db57600080fd5b81019080803573ffffffffffffffffffffffffffffffffffffffff1690602001909291908035906020019092919080359060200190929190803560ff16906020019092919080359060200190929190803573ffffffffffffffffffffffffffffffffffffffff16906020019092919050505061074f565b6040518082815260200191505060405180910390f35b34801561027457600080fd5b506102ab6004803603604081101561028b57600080fd5b810190808035906020019092919080359060200190929190505050610c77565b005b3480156102b957600080fd5b506102e6600480360360208110156102d057600080fd5b8101908080359060200190929190505050611126565b604051808381526020018273ffffffffffffffffffffffffffffffffffffffff1681526020019250505060405180910390f35b6103456004803603602081101561032f57600080fd5b810190808035906020019092919050505061116a565b6040518082815260200191505060405180910390f35b34801561036757600080fd5b506103946004803603602081101561037e57600080fd5b8101908080359060200190929190505050611a8d565b6040518082815260200191505060405180910390f35b6103d6600480360360208110156103c057600080fd5b8101908080359060200190929190505050611a98565b005b3480156103e457600080fd5b50610470600480360360608110156103fb57600080fd5b8101908080359060200190929190803590602001909291908035906020019064010000000081111561042c57600080fd5b82018360208201111561043e57600080fd5b8035906020019184600183028401116401000000008311171561046057600080fd5b90919293919293905050506124ae565b6040518082815260200191505060405180910390f35b34801561049257600080fd5b506104bf600480360360208110156104a957600080fd5b8101908080359060200190929190505050612773565b005b3480156104cd57600080fd5b506104fa600480360360208110156104e457600080fd5b8101908080359060200190929190505050612b29565b005b34801561050857600080fd5b506105356004803603602081101561051f57600080fd5b8101908080359060200190929190505050612e38565b005b34801561054357600080fd5b506105706004803603602081101561055a57600080fd5b8101908080359060200190929190505050612f7c565b604051808973ffffffffffffffffffffffffffffffffffffffff1681526020018881526020018760018111156105a257fe5b81526020018681526020018573ffffffffffffffffffffffffffffffffffffffff1681526020018473ffffffffffffffffffffffffffffffffffffffff1681526020018381526020018260018111156105f757fe5b81526020019850505050505050505060405180910390f35b34801561061b57600080fd5b506106526004803603604081101561063257600080fd5b81019080803590602001909291908035906020019092919050505061303e565b005b60376020528060005260406000206000915090508060000154908060010154908060020160009054906101000a900473ffffffffffffffffffffffffffffffffffffffff1690806003018054600181600116156101000203166002900480601f0160208091040260200160405190810160405280929190818152602001828054600181600116156101000203166002900480156107325780601f1061070757610100808354040283529160200191610732565b820191906000526020600020905b81548152906001019060200180831161071557829003601f168201915b5050505050908060040160009054906101000a900460ff16905085565b600061075a336135d1565b156107cd576040517f08c379a000000000000000000000000000000000000000000000000000000000815260040180806020018281038252601b8152602001807f53656c6c65722063616e6e6f74206265206120636f6e7472616374000000000081525060200191505060405180910390fd5b6107d56137fc565b87816000019073ffffffffffffffffffffffffffffffffffffffff16908173ffffffffffffffffffffffffffffffffffffffff168152505086816020018181525050848160400190600181111561082857fe5b9081600181111561083557fe5b8152505060018081111561084557fe5b85600181111561085157fe5b14156108945782816080019073ffffffffffffffffffffffffffffffffffffffff16908173ffffffffffffffffffffffffffffffffffffffff16815250506108ce565b6000816080019073ffffffffffffffffffffffffffffffffffffffff16908173ffffffffffffffffffffffffffffffffffffffff16815250505b83816060018181525050338160a0019073ffffffffffffffffffffffffffffffffffffffff16908173ffffffffffffffffffffffffffffffffffffffff168152505060008160e00190600181111561092257fe5b9081600181111561092f57fe5b81525050858160c00181815250508060366000603354815260200190815260200160002060008201518160000160006101000a81548173ffffffffffffffffffffffffffffffffffffffff021916908373ffffffffffffffffffffffffffffffffffffffff1602179055506020820151816001015560408201518160020160006101000a81548160ff021916908360018111156109c857fe5b02179055506060820151816003015560808201518160040160006101000a81548173ffffffffffffffffffffffffffffffffffffffff021916908373ffffffffffffffffffffffffffffffffffffffff16021790555060a08201518160050160006101000a81548173ffffffffffffffffffffffffffffffffffffffff021916908373ffffffffffffffffffffffffffffffffffffffff16021790555060c0820151816006015560e08201518160070160006101000a81548160ff02191690836001811115610a9357fe5b021790555090505060008890508073ffffffffffffffffffffffffffffffffffffffff166323b872dd3330610ac88c8c6135e4565b6040518463ffffffff1660e01b8152600401808473ffffffffffffffffffffffffffffffffffffffff1681526020018373ffffffffffffffffffffffffffffffffffffffff1681526020018281526020019350505050602060405180830381600087803b158015610b3857600080fd5b505af1158015610b4c573d6000803e3d6000fd5b505050506040513d6020811015610b6257600080fd5b8101908080519060200190929190505050507f61adf6c4e38f81e640867414c013a5aed3dbacef7dd6172b0e3750d379d089c86033548a8a8a8a8a8a338a60e00151604051808a81526020018973ffffffffffffffffffffffffffffffffffffffff168152602001888152602001878152602001866001811115610be257fe5b81526020018581526020018473ffffffffffffffffffffffffffffffffffffffff1681526020018373ffffffffffffffffffffffffffffffffffffffff168152602001826001811115610c3157fe5b8152602001995050505050505050505060405180910390a1610c56603354600161366a565b603381905550610c6960335460016136f2565b925050509695505050505050565b3373ffffffffffffffffffffffffffffffffffffffff166036600084815260200190815260200160002060050160009054906101000a900473ffffffffffffffffffffffffffffffffffffffff1673ffffffffffffffffffffffffffffffffffffffff1614610d31576040517f08c379a000000000000000000000000000000000000000000000000000000000815260040180806020018281038252602f815260200180613b15602f913960400191505060405180910390fd5b8060366000848152602001908152602001600020600601541015610da0576040517f08c379a0000000000000000000000000000000000000000000000000000000008152600401808060200182810382526048815260200180613a566048913960600191505060405180910390fd5b60006036600084815260200190815260200160002060000160009054906101000a900473ffffffffffffffffffffffffffffffffffffffff1690506000603660008581526020019081526020016000206001015490508173ffffffffffffffffffffffffffffffffffffffff1663a9059cbb33610e1d84876135e4565b6040518363ffffffff1660e01b8152600401808373ffffffffffffffffffffffffffffffffffffffff16815260200182815260200192505050602060405180830381600087803b158015610e7057600080fd5b505af1158015610e84573d6000803e3d6000fd5b505050506040513d6020811015610e9a57600080fd5b8101908080519060200190929190505050508260366000868152602001908152602001600020600601600082825403925050819055506000603660008681526020019081526020016000206006015411610f275760016036600086815260200190815260200160002060070160006101000a81548160ff02191690836001811115610f2157fe5b02179055505b7f61adf6c4e38f81e640867414c013a5aed3dbacef7dd6172b0e3750d379d089c8846036600087815260200190815260200160002060000160009054906101000a900473ffffffffffffffffffffffffffffffffffffffff1660366000888152602001908152602001600020600101546036600089815260200190815260200160002060060154603660008a815260200190815260200160002060020160009054906101000a900460ff16603660008b815260200190815260200160002060030154603660008c815260200190815260200160002060040160009054906101000a900473ffffffffffffffffffffffffffffffffffffffff16603660008d815260200190815260200160002060050160009054906101000a900473ffffffffffffffffffffffffffffffffffffffff16603660008e815260200190815260200160002060070160009054906101000a900460ff16604051808a81526020018973ffffffffffffffffffffffffffffffffffffffff1681526020018881526020018781526020018660018111156110b957fe5b81526020018581526020018473ffffffffffffffffffffffffffffffffffffffff1681526020018373ffffffffffffffffffffffffffffffffffffffff16815260200182600181111561110857fe5b8152602001995050505050505050505060405180910390a150505050565b60386020528060005260406000206000915090508060000154908060010160009054906101000a900473ffffffffffffffffffffffffffffffffffffffff16905082565b600080600181111561117857fe5b6036600084815260200190815260200160002060070160009054906101000a900460ff1660018111156111a757fe5b146111fd576040517f08c379a0000000000000000000000000000000000000000000000000000000008152600401808060200182810382526025815260200180613a316025913960400191505060405180910390fd5b6036600083815260200190815260200160002060050160009054906101000a900473ffffffffffffffffffffffffffffffffffffffff1673ffffffffffffffffffffffffffffffffffffffff163373ffffffffffffffffffffffffffffffffffffffff1614156112b8576040517f08c379a0000000000000000000000000000000000000000000000000000000008152600401808060200182810382526022815260200180613b7c6022913960400191505060405180910390fd5b6112c1336135d1565b15611317576040517f08c379a0000000000000000000000000000000000000000000000000000000008152600401808060200182810382526026815260200180613a0b6026913960400191505060405180910390fd5b600060018081111561132557fe5b6036600085815260200190815260200160002060020160009054906101000a900460ff16600181111561135457fe5b14156115af5760006036600085815260200190815260200160002060040160009054906101000a900473ffffffffffffffffffffffffffffffffffffffff16905060366000858152602001908152602001600020600301549150818173ffffffffffffffffffffffffffffffffffffffff166370a08231336040518263ffffffff1660e01b8152600401808273ffffffffffffffffffffffffffffffffffffffff16815260200191505060206040518083038186803b15801561141657600080fd5b505afa15801561142a573d6000803e3d6000fd5b505050506040513d602081101561144057600080fd5b810190808051906020019092919050505010156114a8576040517f08c379a0000000000000000000000000000000000000000000000000000000008152600401808060200182810382526029815260200180613a9e6029913960400191505060405180910390fd5b8073ffffffffffffffffffffffffffffffffffffffff166323b872dd336036600088815260200190815260200160002060050160009054906101000a900473ffffffffffffffffffffffffffffffffffffffff16856040518463ffffffff1660e01b8152600401808473ffffffffffffffffffffffffffffffffffffffff1681526020018373ffffffffffffffffffffffffffffffffffffffff1681526020018281526020019350505050602060405180830381600087803b15801561156d57600080fd5b505af1158015611581573d6000803e3d6000fd5b505050506040513d602081101561159757600080fd5b810190808051906020019092919050505050506116bd565b60366000848152602001908152602001600020600301549050803414611620576040517f08c379a0000000000000000000000000000000000000000000000000000000008152600401808060200182810382526029815260200180613a9e6029913960400191505060405180910390fd5b6036600084815260200190815260200160002060050160009054906101000a900473ffffffffffffffffffffffffffffffffffffffff1673ffffffffffffffffffffffffffffffffffffffff163460405180600001905060006040518083038185875af1925050503d80600081146116b4576040519150601f19603f3d011682016040523d82523d6000602084013e6116b9565b606091505b5050505b6116de603660008581526020019081526020016000206006015460016136f2565b6036600085815260200190815260200160002060060181905550600060366000858152602001908152602001600020600601541161174f5760016036600085815260200190815260200160002060070160006101000a81548160ff0219169083600181111561174957fe5b02179055505b611757613899565b8381600001818152505033816020019073ffffffffffffffffffffffffffffffffffffffff16908173ffffffffffffffffffffffffffffffffffffffff1681525050806038600060345481526020019081526020016000206000820151816000015560208201518160010160006101000a81548173ffffffffffffffffffffffffffffffffffffffff021916908373ffffffffffffffffffffffffffffffffffffffff1602179055509050507f03e8d5d9268c1ac4a724a1ffa460037270a99fd3fd6675e96a1b1e2e84a04a086034548533604051808481526020018381526020018273ffffffffffffffffffffffffffffffffffffffff168152602001935050505060405180910390a161186f603454600161366a565b60348190555061187e84612e38565b7f61adf6c4e38f81e640867414c013a5aed3dbacef7dd6172b0e3750d379d089c8846036600087815260200190815260200160002060000160009054906101000a900473ffffffffffffffffffffffffffffffffffffffff1660366000888152602001908152602001600020600101546036600089815260200190815260200160002060060154603660008a815260200190815260200160002060020160009054906101000a900460ff16603660008b815260200190815260200160002060030154603660008c815260200190815260200160002060040160009054906101000a900473ffffffffffffffffffffffffffffffffffffffff16603660008d815260200190815260200160002060050160009054906101000a900473ffffffffffffffffffffffffffffffffffffffff16603660008e815260200190815260200160002060070160009054906101000a900460ff16604051808a81526020018973ffffffffffffffffffffffffffffffffffffffff168152602001888152602001878152602001866001811115611a1057fe5b81526020018581526020018473ffffffffffffffffffffffffffffffffffffffff1681526020018373ffffffffffffffffffffffffffffffffffffffff168152602001826001811115611a5f57fe5b8152602001995050505050505050505060405180910390a1611a8460345460016136f2565b92505050919050565b600060039050919050565b60006037600083815260200190815260200160002060000154905060016004811115611ac057fe5b6037600084815260200190815260200160002060040160009054906101000a900460ff166004811115611aef57fe5b14611b62576040517f08c379a000000000000000000000000000000000000000000000000000000000815260040180806020018281038252601e8152602001807f436f756e746572204f72646572206d757374206265206163636570746564000081525060200191505060405180910390fd5b6037600083815260200190815260200160002060020160009054906101000a900473ffffffffffffffffffffffffffffffffffffffff1673ffffffffffffffffffffffffffffffffffffffff163373ffffffffffffffffffffffffffffffffffffffff1614611bd057600080fd5b6000611bdb82612e38565b611bfc603660008481526020019081526020016000206006015460016136f2565b60366000848152602001908152602001600020600601819055506000603660008481526020019081526020016000206006015411611c6d5760016036600084815260200190815260200160002060070160006101000a81548160ff02191690836001811115611c6757fe5b02179055505b600180811115611c7957fe5b6036600084815260200190815260200160002060020160009054906101000a900460ff166001811115611ca857fe5b141561201b5760006036600084815260200190815260200160002060040160009054906101000a900473ffffffffffffffffffffffffffffffffffffffff16905060376000848152602001908152602001600020600101549150818173ffffffffffffffffffffffffffffffffffffffff166370a08231336040518263ffffffff1660e01b8152600401808273ffffffffffffffffffffffffffffffffffffffff16815260200191505060206040518083038186803b158015611d6a57600080fd5b505afa158015611d7e573d6000803e3d6000fd5b505050506040513d6020811015611d9457600080fd5b81019080805190602001909291905050501015611dfc576040517f08c379a0000000000000000000000000000000000000000000000000000000008152600401808060200182810382526029815260200180613a9e6029913960400191505060405180910390fd5b818173ffffffffffffffffffffffffffffffffffffffff1663dd62ed3e33306040518363ffffffff1660e01b8152600401808373ffffffffffffffffffffffffffffffffffffffff1681526020018273ffffffffffffffffffffffffffffffffffffffff1681526020019250505060206040518083038186803b158015611e8257600080fd5b505afa158015611e96573d6000803e3d6000fd5b505050506040513d6020811015611eac57600080fd5b81019080805190602001909291905050501015611f14576040517f08c379a0000000000000000000000000000000000000000000000000000000008152600401808060200182810382526038815260200180613b446038913960400191505060405180910390fd5b8073ffffffffffffffffffffffffffffffffffffffff166323b872dd336036600087815260200190815260200160002060050160009054906101000a900473ffffffffffffffffffffffffffffffffffffffff16856040518463ffffffff1660e01b8152600401808473ffffffffffffffffffffffffffffffffffffffff1681526020018373ffffffffffffffffffffffffffffffffffffffff1681526020018281526020019350505050602060405180830381600087803b158015611fd957600080fd5b505af1158015611fed573d6000803e3d6000fd5b505050506040513d602081101561200357600080fd5b8101908080519060200190929190505050505061212a565b603760008381526020019081526020016000206001015490508034101561208d576040517f08c379a0000000000000000000000000000000000000000000000000000000008152600401808060200182810382526029815260200180613a9e6029913960400191505060405180910390fd5b6036600083815260200190815260200160002060050160009054906101000a900473ffffffffffffffffffffffffffffffffffffffff1673ffffffffffffffffffffffffffffffffffffffff163460405180600001905060006040518083038185875af1925050503d8060008114612121576040519150601f19603f3d011682016040523d82523d6000602084013e612126565b606091505b5050505b7f364ed7de26406cfe87cfdc422e37e7a22143ce38f95a1ec13e7dcbda3d36eb8a83836037600087815260200190815260200160002060010154603760008881526020019081526020016000206003016037600089815260200190815260200160002060040160009054906101000a900460ff16603760008a815260200190815260200160002060020160009054906101000a900473ffffffffffffffffffffffffffffffffffffffff1660405180878152602001868152602001858152602001806020018460048111156121fb57fe5b81526020018373ffffffffffffffffffffffffffffffffffffffff16815260200182810382528581815460018160011615610100020316600290048152602001915080546001816001161561010002031660029004801561229d5780601f106122725761010080835404028352916020019161229d565b820191906000526020600020905b81548152906001019060200180831161228057829003601f168201915b505097505050505050505060405180910390a17f61adf6c4e38f81e640867414c013a5aed3dbacef7dd6172b0e3750d379d089c8826036600085815260200190815260200160002060000160009054906101000a900473ffffffffffffffffffffffffffffffffffffffff16603660008681526020019081526020016000206001015460366000878152602001908152602001600020600601546036600088815260200190815260200160002060020160009054906101000a900460ff166036600089815260200190815260200160002060030154603660008a815260200190815260200160002060040160009054906101000a900473ffffffffffffffffffffffffffffffffffffffff16603660008b815260200190815260200160002060050160009054906101000a900473ffffffffffffffffffffffffffffffffffffffff16603660008c815260200190815260200160002060070160009054906101000a900460ff16604051808a81526020018973ffffffffffffffffffffffffffffffffffffffff16815260200188815260200187815260200186600181111561244257fe5b81526020018581526020018473ffffffffffffffffffffffffffffffffffffffff1681526020018373ffffffffffffffffffffffffffffffffffffffff16815260200182600181111561249157fe5b8152602001995050505050505050505060405180910390a1505050565b6000833373ffffffffffffffffffffffffffffffffffffffff16311015612520576040517f08c379a000000000000000000000000000000000000000000000000000000000815260040180806020018281038252602f815260200180613bde602f913960400191505060405180910390fd5b6125286138c9565b8581600001818152505033816040019073ffffffffffffffffffffffffffffffffffffffff16908173ffffffffffffffffffffffffffffffffffffffff16815250508481602001818152505083838080601f016020809104026020016040519081016040528093929190818152602001838380828437600081840152601f19601f8201169050808301925050505050505081606001819052506002816080019060048111156125d357fe5b908160048111156125e057fe5b8152505080603760006035548152602001908152602001600020600082015181600001556020820151816001015560408201518160020160006101000a81548173ffffffffffffffffffffffffffffffffffffffff021916908373ffffffffffffffffffffffffffffffffffffffff1602179055506060820151816003019080519060200190612671929190613919565b5060808201518160040160006101000a81548160ff0219169083600481111561269657fe5b02179055509050507f364ed7de26406cfe87cfdc422e37e7a22143ce38f95a1ec13e7dcbda3d36eb8a6035548787878786608001513360405180888152602001878152602001868152602001806020018460048111156126f257fe5b81526020018373ffffffffffffffffffffffffffffffffffffffff1681526020018281038252868682818152602001925080828437600081840152601f19601f8201169050808301925050509850505050505050505060405180910390a1603560008154809291906001019190505550600160355403915050949350505050565b60006037600083815260200190815260200160002060000154905060006037600084815260200190815260200160002060020160009054906101000a900473ffffffffffffffffffffffffffffffffffffffff16905060006036600084815260200190815260200160002060050160009054906101000a900473ffffffffffffffffffffffffffffffffffffffff1690508073ffffffffffffffffffffffffffffffffffffffff163373ffffffffffffffffffffffffffffffffffffffff16148061286957508173ffffffffffffffffffffffffffffffffffffffff163373ffffffffffffffffffffffffffffffffffffffff16145b6128be576040517f08c379a0000000000000000000000000000000000000000000000000000000008152600401808060200182810382526040815260200180613b9e6040913960400191505060405180910390fd5b8073ffffffffffffffffffffffffffffffffffffffff163373ffffffffffffffffffffffffffffffffffffffff16141561292f5760006037600085815260200190815260200160002060040160006101000a81548160ff0219169083600481111561292557fe5b021790555061299d565b8173ffffffffffffffffffffffffffffffffffffffff163373ffffffffffffffffffffffffffffffffffffffff16141561299c5760036037600085815260200190815260200160002060040160006101000a81548160ff0219169083600481111561299657fe5b02179055505b5b7f364ed7de26406cfe87cfdc422e37e7a22143ce38f95a1ec13e7dcbda3d36eb8a8484603760008881526020019081526020016000206001015460376000898152602001908152602001600020600301603760008a815260200190815260200160002060040160009054906101000a900460ff16603760008b815260200190815260200160002060020160009054906101000a900473ffffffffffffffffffffffffffffffffffffffff166040518087815260200186815260200185815260200180602001846004811115612a6e57fe5b81526020018373ffffffffffffffffffffffffffffffffffffffff168152602001828103825285818154600181600116156101000203166002900481526020019150805460018160011615610100020316600290048015612b105780601f10612ae557610100808354040283529160200191612b10565b820191906000526020600020905b815481529060010190602001808311612af357829003601f168201915b505097505050505050505060405180910390a150505050565b6000603760008381526020019081526020016000206000015490503373ffffffffffffffffffffffffffffffffffffffff166036600083815260200190815260200160002060050160009054906101000a900473ffffffffffffffffffffffffffffffffffffffff1673ffffffffffffffffffffffffffffffffffffffff1614612bfe576040517f08c379a00000000000000000000000000000000000000000000000000000000081526004018080602001828103825260268152602001806139e56026913960400191505060405180910390fd5b60006037600084815260200190815260200160002060020160009054906101000a900473ffffffffffffffffffffffffffffffffffffffff16905060006036600084815260200190815260200160002060050160009054906101000a900473ffffffffffffffffffffffffffffffffffffffff16905060016037600086815260200190815260200160002060040160006101000a81548160ff02191690836004811115612ca757fe5b02179055507f364ed7de26406cfe87cfdc422e37e7a22143ce38f95a1ec13e7dcbda3d36eb8a8484603760008881526020019081526020016000206001015460376000898152602001908152602001600020600301603760008a815260200190815260200160002060040160009054906101000a900460ff16603760008b815260200190815260200160002060020160009054906101000a900473ffffffffffffffffffffffffffffffffffffffff166040518087815260200186815260200185815260200180602001846004811115612d7d57fe5b81526020018373ffffffffffffffffffffffffffffffffffffffff168152602001828103825285818154600181600116156101000203166002900481526020019150805460018160011615610100020316600290048015612e1f5780601f10612df457610100808354040283529160200191612e1f565b820191906000526020600020905b815481529060010190602001808311612e0257829003601f168201915b505097505050505050505060405180910390a150505050565b60006036600083815260200190815260200160002060050160009054906101000a900473ffffffffffffffffffffffffffffffffffffffff16905060006036600084815260200190815260200160002060000160009054906101000a900473ffffffffffffffffffffffffffffffffffffffff1690506000603660008581526020019081526020016000206001015490508173ffffffffffffffffffffffffffffffffffffffff1663a9059cbb33836040518363ffffffff1660e01b8152600401808373ffffffffffffffffffffffffffffffffffffffff16815260200182815260200192505050602060405180830381600087803b158015612f3a57600080fd5b505af1158015612f4e573d6000803e3d6000fd5b505050506040513d6020811015612f6457600080fd5b81019080805190602001909291905050505050505050565b60366020528060005260406000206000915090508060000160009054906101000a900473ffffffffffffffffffffffffffffffffffffffff16908060010154908060020160009054906101000a900460ff16908060030154908060040160009054906101000a900473ffffffffffffffffffffffffffffffffffffffff16908060050160009054906101000a900473ffffffffffffffffffffffffffffffffffffffff16908060060154908060070160009054906101000a900460ff16905088565b3373ffffffffffffffffffffffffffffffffffffffff166036600084815260200190815260200160002060050160009054906101000a900473ffffffffffffffffffffffffffffffffffffffff1673ffffffffffffffffffffffffffffffffffffffff16146130f8576040517f08c379a000000000000000000000000000000000000000000000000000000000815260040180806020018281038252602e8152602001806139b7602e913960400191505060405180910390fd5b61311860366000848152602001908152602001600020600601548261366a565b603660008481526020019081526020016000206006018190555060006036600084815260200190815260200160002060000160009054906101000a900473ffffffffffffffffffffffffffffffffffffffff16905060006036600085815260200190815260200160002060010154905061319281846135e4565b8273ffffffffffffffffffffffffffffffffffffffff166370a08231336040518263ffffffff1660e01b8152600401808273ffffffffffffffffffffffffffffffffffffffff16815260200191505060206040518083038186803b1580156131f957600080fd5b505afa15801561320d573d6000803e3d6000fd5b505050506040513d602081101561322357600080fd5b8101908080519060200190929190505050101561328b576040517f08c379a000000000000000000000000000000000000000000000000000000000815260040180806020018281038252602d815260200180613ac7602d913960400191505060405180910390fd5b60018081111561329757fe5b6036600086815260200190815260200160002060070160009054906101000a900460ff1660018111156132c657fe5b14156133055760006036600086815260200190815260200160002060070160006101000a81548160ff021916908360018111156132ff57fe5b02179055505b8173ffffffffffffffffffffffffffffffffffffffff166323b872dd33308685026040518463ffffffff1660e01b8152600401808473ffffffffffffffffffffffffffffffffffffffff1681526020018373ffffffffffffffffffffffffffffffffffffffff1681526020018281526020019350505050602060405180830381600087803b15801561339657600080fd5b505af11580156133aa573d6000803e3d6000fd5b505050506040513d60208110156133c057600080fd5b8101908080519060200190929190505050507f61adf6c4e38f81e640867414c013a5aed3dbacef7dd6172b0e3750d379d089c8846036600087815260200190815260200160002060000160009054906101000a900473ffffffffffffffffffffffffffffffffffffffff1660366000888152602001908152602001600020600101546036600089815260200190815260200160002060060154603660008a815260200190815260200160002060020160009054906101000a900460ff16603660008b815260200190815260200160002060030154603660008c815260200190815260200160002060040160009054906101000a900473ffffffffffffffffffffffffffffffffffffffff16603660008d815260200190815260200160002060050160009054906101000a900473ffffffffffffffffffffffffffffffffffffffff16603660008e815260200190815260200160002060070160009054906101000a900460ff16604051808a81526020018973ffffffffffffffffffffffffffffffffffffffff16815260200188815260200187815260200186600181111561356457fe5b81526020018581526020018473ffffffffffffffffffffffffffffffffffffffff1681526020018373ffffffffffffffffffffffffffffffffffffffff1681526020018260018111156135b357fe5b8152602001995050505050505050505060405180910390a150505050565b600080823b905060008111915050919050565b6000808314156135f75760009050613664565b600082840290508284828161360857fe5b041461365f576040517f08c379a0000000000000000000000000000000000000000000000000000000008152600401808060200182810382526021815260200180613af46021913960400191505060405180910390fd5b809150505b92915050565b6000808284019050838110156136e8576040517f08c379a000000000000000000000000000000000000000000000000000000000815260040180806020018281038252601b8152602001807f536166654d6174683a206164646974696f6e206f766572666c6f77000000000081525060200191505060405180910390fd5b8091505092915050565b600061373483836040518060400160405280601e81526020017f536166654d6174683a207375627472616374696f6e206f766572666c6f77000081525061373c565b905092915050565b60008383111582906137e9576040517f08c379a00000000000000000000000000000000000000000000000000000000081526004018080602001828103825283818151815260200191508051906020019080838360005b838110156137ae578082015181840152602081019050613793565b50505050905090810190601f1680156137db5780820380516001836020036101000a031916815260200191505b509250505060405180910390fd5b5060008385039050809150509392505050565b604051806101000160405280600073ffffffffffffffffffffffffffffffffffffffff168152602001600081526020016000600181111561383957fe5b815260200160008152602001600073ffffffffffffffffffffffffffffffffffffffff168152602001600073ffffffffffffffffffffffffffffffffffffffff168152602001600081526020016000600181111561389357fe5b81525090565b604051806040016040528060008152602001600073ffffffffffffffffffffffffffffffffffffffff1681525090565b6040518060a001604052806000815260200160008152602001600073ffffffffffffffffffffffffffffffffffffffff168152602001606081526020016000600481111561391357fe5b81525090565b828054600181600116156101000203166002900490600052602060002090601f016020900481019282601f1061395a57805160ff1916838001178555613988565b82800160010185558215613988579182015b8281111561398757825182559160200191906001019061396c565b5b5090506139959190613999565b5090565b5b808211156139b257600081600090555060010161399a565b509056fe4f6e6c792053656c6c6572206f66207468657365204f72646572732063616e206465706f736974204f72646572734f6e6c792053656c6c65722063616e20416363657074206120436f756e746572204f726465724f666665722063616e6e6f74206265206163636570746564206279206120636f6e7472616374546869732053656c6c204f72646572206973206e6f206c6f6e67657220666f722073616c6553656c6c6572206d757374206861766520656e6f756768204f7264657273206465706f736974656420746f2077697468647261772074686520737065636966696320616d6f756e74596f7520646f6e742068617665207468652066756e647320746f20627579207468697320746f6b656e53656c6c6572206d7573742068617665207468652066756e6473206265696e672070757420666f722073616c65536166654d6174683a206d756c7469706c69636174696f6e206f766572666c6f774f6e6c792053656c6c6572206f66207468657365204f72646572732063616e207769746864726177204f72646572734275796572206e6565647320746f20617070726f766520726571756972656420746f6b656e7320746f20636f6e747261637420666972737453656c6c65722063616e6e6f742041636365707420686973206f776e206f666665724f6e6c792053656c6c6572206f72204f776e6572206f662074686520436f756e746572204f726465722063616e2063616e63656c20636f757465724f72646572596f7520646f206e6f742068617665207468652066756e647320746f206d616b65207375636820616e206f66666572a2646970667358221220695eeaa55c5854e1168bed7d6860ccd1478c876e2aeac1d116e947d74e2ecf9864736f6c634300060c0033",
  "compiler": {
    "name": "solc",
    "version": "0.6.12+commit.27d51765.Emscripten.clang",
    "optimizer": {
      "enabled": false,
      "runs": 200
    },
    "evmVersion": "petersburg"
  }
}